:020000040800F2
:100000006809002029020008F51E00086719000889
:100010007D1E00081F040008818A000800000000FF
:100020000000000000000000000000004167000820
:10003000110600080000000015670008B9670008F5
:10004000430200084302000843020008430200087C
:10005000430200084302000843020008430200086C
:10006000430200084302000843020008430200085C
:10007000430200084302000843020008430200084C
:10008000430200084302000843020008430200083C
:100090004302000843020008430200081D0700084D
:1000A000430200084302000843020008430200081C
:1000B000430200084302000843020008430200080C
:1000C00043020008430200084302000843020008FC
:1000D00043020008430200084302000843020008EC
:1000E00043020008430200084302000843020008DC
:1000F00043020008430200084302000843020008CC
:1001000043020008430200084302000843020008BB
:100110004302000843020008E96A0008430200089D
:10012000430200084302000843020008430200089B
:10013000430200084302000843020008430200088B
:10014000430200084302000843020008430200087B
:10015000430200084302000843020008430200086B
:10016000430200084302000843020008430200085B
:100170004302000843020008430200080000000098
:10018000430200084302000800F002F800F03CF8C7
:100190000AA090E8000C82448344AAF10107DA45E2
:1001A00001D100F031F8AFF2090EBAE80F0013F0F8
:1001B000010F18BFFB1A43F00103184718960000FF
:1001C00038960000103A24BF78C878C1FAD8520790
:1001D00024BF30C830C144BF04680C6070470000C1
:1001E0000023002400250026103A28BF78C1FBD840
:1001F000520728BF30C148BF0B6070471FB509F0D8
:10020000D5FA1FBD10B510BD00F0CFF81146FFF7AD
:10021000F5FF09F0F9F800F0EDF803B4FFF7F2FF8D
:1002200003BC00F0F5F80000094880470948004782
:10023000FEE7FEE7FEE7FEE7FEE7FEE7FEE7FEE796
:10024000FEE7FEE704480549054A064B70470000F3
:10025000516800088901000868030020680900202F
:10026000680500206805002053EA020C00F0698050
:100270002DE9F04B4FF00006002B1FBFB3FA83F5BA
:1002800003FA05F424FA05F65E4012BF1643B2FAEB
:1002900082F502FA05F4C5F120051EBF22FA05FC1D
:1002A00044EA0C04203556EA044C4FEA144418BFC3
:1002B000641C4FF000084FF00009904271EB030CF2
:1002C00039D3002919BFB1FA81F701FA07F6B0FA5C
:1002D00080F700FA07F6C7F120071EBF20FA07FCD7
:1002E00046EA0C062037B6FBF4FCA7EB0507103FE7
:1002F00007F01F0BCBF120060CFA0BFB2CFA06F6CD
:1003000044BFB3460026202FA4BF5E464FF0000B2B
:100310005BEA060C08BF4FF0010B19EB0B09ABFBB6
:10032000027C48EB0608C01B06FB02CC0BFB03CC8F
:1003300071EB0C01C1E70B46024641464846BDE859
:10034000F08B13B54FF000004FF00001AFF30080C9
:10035000BDE81C4070474FF0000200B513469446BC
:100360009646203922BFA0E80C50A0E80C50B1F10D
:100370002001BFF4F7AF090728BFA0E80C5048BF21
:100380000CC05DF804EB890028BF40F8042B08BFBF
:10039000704748BF20F8022B11F0804F18BF00F8BB
:1003A000012B7047704770477047754600F02CF876
:1003B000AE4605006946534620F00700854618B052
:1003C00020B5FFF73FFFBDE820404FF000064FF09B
:1003D00000074FF000084FF0000B21F00701AC467A
:1003E000ACE8C009ACE8C009ACE8C009ACE8C00999
:1003F0008D46704710B50446AFF300802046BDE837
:100400001040FFF70ABF00000048704708030020B3
:1004100001491820ABBEFEE7260002007047FEE748
:100420002DE9F05F764D0024764EB5F90000764F49
:100430004FF4FA7A4FF47A7B012832D0022834D074
:100440004FF4E168032852D04FF44879042838D09B
:1004500005283FD006284AD0072837D008284FD093
:10046000092851D00A2854D0684D40F6340840F28B
:10047000523A05F104090B284FD00C285BD00D2807
:100480007ED0DFF87C810F2819D1642000F04CF970
:10049000C5F800B04FF4C87000F046F9A8F8004065
:1004A0000BE008F03DFF50461BE000F0B3F8584663
:1004B00020E000BF00F038F92C8034803C80BDE89B
:1004C000F09F08F02DFFC82000F02EF900F0A2F8F0
:1004D0004846EFE7642000F027F908F021FF4FF4C9
:1004E000967000F021F900F095F85846E2E700F028
:1004F00091F8404600F018F908F012FF5046D9E78D
:1005000008F00EFFC820D5E708F00AFF4FF49670F8
:10051000D0E7642000F008F9F6E7642000F004F961
:10052000C5F800804FF4C875284600F0FDF8C9F8FA
:1005300000A0284621E0642000F0F6F840F2A46014
:1005400028604FF4C87000F0EFF8C5F800B04FF421
:10055000C87000F0E9F84FF40270C9F800004FF4D9
:10056000C87000F0E1F8C5F800804FF4C87000F0E2
:10057000DBF8C9F800A04FF4C87000F0D5F800E02F
:1005800002E01F48048098E7642000F0CDF840F2B4
:10059000A46028604FF4C87000F0C6F84FF4617092
:1005A00028604FF4C87000F0BFF84FF4027BC9F820
:1005B00000B04FF4C87000F0B7F8C5F800804FF4F1
:1005C000C87000F0B1F84FF4617028604FF4C87043
:1005D00000F0AAF80A48048034803C80642000F0CF
:1005E000A3F8C9F800A04FF4C87000F09DF8C9F84E
:1005F00000B0BDE8F05F4FF4C87000F095B800009F
:10060000620000206C0000206E0000203C040140CD
:10061000704700001C491D48B1F90020172A23D05B
:1006200006DC062A0ED2DFE802F00D101316191CA4
:10063000222A1CD02D2A20D0332A21D0A2F5807264
:10064000553A17D000200880704740F6020119E0A3
:1006500040F20E6116E040F2B63113E04FF4E17162
:1006600010E040F6C4110DE040F24C410AE040F2C7
:10067000523107E040F28A2104E04FF4966101E034
:1006800040F6FC01016070476C0000203804014016
:1006900010B500211D4801F0B1F804211B4801F0FC
:1006A000ADF80821194801F0A9F80C21174801F00C
:1006B000A5F80021164801F0A1F80421144801F022
:1006C0009DF80821124801F099F80C21104801F01A
:1006D00095F8104940F2DC5008600E4A40F2AA51E9
:1006E000121D1160111D0860091D08600A4908608B
:1006F000091D40F602000860091D4FF47A70086079
:10070000091D4FF40270086010BD0000A001002018
:10071000300200203408004034040140202000F062
:100720001FB872B6FEE7000070B5044600F026F967
:100730000546601C02D004480078044400F01EF90D
:10074000401BA042FAD370BD8C000020202803D1AA
:1007500002480168491C01607047000078000020D1
:10076000044910B50A68024202D00860FFF7EEFFA4
:1007700010BD0000143C01402DE9F84FDFF8BCA18A
:100780000022012503264FF00F090AF1040BAAF1FC
:10079000040E00BF0B6805FA02F42340A34270D197
:1007A0000F7907F00307012F01D0022F16D18768B8
:1007B0004FEA420806FA08FC27EA0C07D1F80CC0F9
:1007C0000CFA08FC4CEA070CC0F808C04768A743BD
:1007D0000C79C4F3001494403C4344600C79E44326
:1007E000A4070AD0C4684FEA420C06FA0CF7BC43CF
:1007F0008F6807FA0CF72743C7600C7904F00304ED
:10080000022C12D1D40800EB840CDCF820405707EE
:10081000FF0E09FA07F824EA0804D1F8108008FA54
:1008200007F848EA0408CCF8208004684FEA420C34
:1008300006FA0CF7BC430F7907F0030707FA0CF729
:10084000274307604C6814F4403F70D03C4C276845
:1008500047F480472760246822F0030704F48044AB
:100860000094384C07EB040CDCF8084897074FEA73
:10087000177809FA08F7BC43334FB84202D1002772
:1008800024E054E0314FB84201D101271EE0304F3F
:10089000B84201D1022719E02E4FB84201D10327F7
:1008A00014E02D4FB84201D104270FE02B4FB8427E
:1008B00001D105270AE02A4FB84201D1062705E0F9
:1008C000284FB84201D1072700E0082707FA08F7A8
:1008D0002743CCF80878DAF800405746D1F804C02E
:1008E0009C435FEACC2C00D51C433C60DBF8004005
:1008F0005F46D1F804C09C435FEA8C2C00D51C43B2
:100900003C60DEF800407746D1F804C09C435FEAC3
:100910008C3C00D51C433C60084F083F3C68D1F834
:1009200004C09C435FEACC3C00D51C433C60521C95
:10093000102AFFF42FAFBDE8F88F0000083C0140FB
:1009400044380240003001400000024000040240F0
:1009500000080240000C0240001002400014024057
:1009600000180240001C02400069084000D001202D
:1009700070470AB1816170470904FBE7014880684C
:10098000704700008C000020024881680278114402
:10099000816070478C0000200B4810B5016841F45D
:1009A00000710160016841F480610160016841F4F7
:1009B00080710160032000F06FF8002000F006F85D
:1009C00000F024F8002010BD003C024070B50D4D31
:1009D00004464FF47A712878B1FBF0F00A490968AF
:1009E000B1FBF0F000F0EAFA48B9102C07D200226F
:1009F0002146501E00F030F800206C6070BD0120D0
:100A000070BD00008C000020980000200A4808B546
:100A1000016841F480410160006800F4804000906A
:100A20000548001F016841F080510160006800F036
:100A30008050009008BD000044380240002809DBC7
:100A400000F01F02012191404009800000F1E020E8
:100A5000C0F8001170470000F0B40E4B1B680C4644
:100A6000C3F30223C3F10705042D00D90425191D82
:100A7000072901D2002300E0DB1E012606FA05F15A
:100A8000491E214099409E40761E16403143F0BCDD
:100A900008F036BC0CED00E0064900F007020868DB
:100AA0004FF6FF03184040EA0220034A1043086053
:100AB000704700000CED00E00000FA052DE9F0475A
:100AC0000E46050065D0DFF81481D8F80000F7B2B3
:100AD00000F00700B04207D288F80070D8F8000094
:100AE00000F00700B04254D128683D4C810712D570
:100AF000400703D5206840F4E050206028780007C4
:100B000003D5206840F4604020602068A96820F088
:100B1000F000084320602878C0072DD0304968686D
:100B20000839012812D0022813D0032811D00968EF
:100B3000890700292DDA216821F003010143216092
:100B4000FFF71CFF814641F2883A0EE009688903ED
:100B5000EFE709688901ECE7FFF710FFA0EB090157
:100B6000514502D90320BDE8F0872068696800F08C
:100B70000C00B0EB810FEFD1D8F80010404601F027
:100B80000701B14207D90770006800F00700B042C2
:100B900001D00120E7E72878400705D52068E968FB
:100BA00020F4E050084320602878000706D520682C
:100BB000296920F4604040EAC100206000F018F884
:100BC0002168084AC1F30311515CC8400649086016
:100BD00006480068FFF7FAFE0020C4E7003C024028
:100BE00008380240B69700089800002090000020C6
:100BF000154810B5006810F00C02144813D04110CD
:100C0000042A0FD0082A0ED10F4C241F2268236813
:100C100002F03F025B0207D52068C0F38810A0FBFA
:100C2000010106E0084610BD2168C1F38811A1FB4F
:100C300000010023FFF718FB2168C1F30141491CA3
:100C40004900B0FBF1F010BD083802400024F40068
:100C50002DE9F84F04006ED02078DFF84C93C007E0
:100C6000A9F104054AD009F104000168C1F381012A
:100C7000012908D00068C0F3810002280AD1D9F800
:100C80000000400206D52868800337D56068002838
:100C9000E1D033E06068B0F5803F10D0B0F5A02F10
:100CA000286810D020F480302860286820F4802044
:100CB00028606068A8B1FFF761FE06460DE028686D
:100CC00040F48030F4E740F480202860F7E700BF6C
:100CD000FFF754FE801B642873D828688003F7D57B
:100CE0000CE0FFF74BFE064605E000BFFFF746FEAF
:100CF000801B6428F0D828688003F7D42078DFF8B8
:100D0000AC8280074FF0000A3ED5A748001D01685D
:100D100011F00C0F08D00068C0F3810002280BD13D
:100D2000D9F80000400207D42868800716D5E0688B
:100D3000012800D112E033E1E068B8B10120C8F821
:100D40000000FFF71BFE064605E000BFFFF716FE9A
:100D5000801B0228C0D828688007F7D52868216939
:100D600020F0F80040EAC10028600DE0C8F800A0BB
:100D7000FFF704FE064604E0FFF700FE801B022892
:100D80001FD828688007F7D42078000722D5864F1F
:100D900087486169703771B101210160FFF7EEFD8D
:100DA000064604E0FFF7EAFD801B022809D83868F0
:100DB0008007F7D50EE0C0F800A0FFF7DFFD06467C
:100DC00005E082E0FFF7DAFD801B02287DD8386855
:100DD0008007F7D42078400768D5DFF8CCB100272A
:100DE0000BF13C0BDBF80000C0000BD4DBF800106B
:100DF00041F08051CBF80010DBF80000012700F033
:100E0000805000906B4E3068C00510D4306840F4BC
:100E100080703060FFF7B2FD009005E0FFF7AEFD97
:100E20000099401A022850D83068C005F6D55E4EA9
:100E3000A0686C3601280FD00528306810D020F04B
:100E400001003060306820F004003060A068B8B164
:100E5000FFF794FD00900FE0306840F00100F4E7E8
:100E600040F004003060F7E7FFF788FD0099411A71
:100E700041F28830814266D830688007F4D50EE0B0
:100E8000FFF77CFD009007E0FFF778FD0099411A1D
:100E900041F28830814256D830688007F4D42FB1AF
:100EA000DBF8001021F08051CBF80010A069C8B326
:100EB0003D49091D0968C1F3810102294AD0022870
:100EC000504607D0C8F8600000E03CE0FFF756FD50
:100ED00004463BE04746C8F86000FFF74FFD064672
:100EE00005E000BFFFF74AFD801B02282BD82868C9
:100EF0008001F7D4D4E907010843A16A2E4A4908C2
:100F000002EB0141626A41EA8211084394F82C1015
:100F100040EA0161C9F8001001203866FFF72EFD94
:100F2000044606E03EE000BFFFF728FD001B022854
:100F300009D828688001F7D534E000BFFFF71EFD0F
:100F4000001B022802D90320BDE8F88F2868800121
:100F5000F4D427E00128F7D0D9F80000E26900F4C2
:100F6000800191421CD1226A00F03F01914217D1C9
:100F700047F6C071626A0140B1EB821F10D1A26ACC
:100F80004FF0FF3300F4403103EB5202B1EB024F5C
:100F900006D194F82C1000F07060B0EB016F01D016
:100FA0000120D1E70020CFE704380240000047428B
:100FB000800E4742007000400000FFFF10B5401E49
:100FC000B0F1807F01D3012010BD4FF0E0246061BB
:100FD0000F21601708F094F90020A061072020611C
:100FE000002010BD7047704710B590F83C20012AD2
:100FF00022D0012280F83C20CA688C6822F440721A
:1010000022434C6822F4806222430C6822F400627E
:1010100022430C6922F4805222434C6922F400528C
:101020002243C969002322F480420A4301684A64CA
:1010300080F83C30002010BD022010BD70B590F843
:101040003C20012A32D0012480F83C40022280F862
:101050003D2003685A689D6822F070060A68324392
:101060005A60134B02689A4214D0B2F1804F11D0EB
:10107000104B9A420ED0104B9A420BD00F4B9A4213
:1010800008D00F4B9A4205D00E4B9A4202D00E4B1D
:101090009A4204D1496825F080031943916080F891
:1010A0003D40002180F83C10084670BD022070BD14
:1010B000000001400004004000080040000C004017
:1010C00000040140004001400018004010B5040039
:1010D00003D094F83D0010B107E0012010BD0020BE
:1010E00084F83C00204600F01FF8022084F83D0000
:1010F000211D206805F0FEFC012084F8460084F8DC
:101100003E0084F83F0084F8400084F8410084F8F1
:10111000420084F8430084F8440084F8450084F8D1
:101120003D00002010BD000008B51D4902681D48A3
:101130008A4207D1016841F001010160006800F0B6
:1011400001000BE01749184B091F9A4208D10868A3
:1011500040F004000860086800F00400009008BD3A
:10116000124B9A4211D1086840F0100008600868DC
:10117000002200F01000009001213620FFF76CFCE7
:10118000BDE808403620FFF759BC09498A42E6D13C
:10119000016841F002010160006800F00200DDE733
:1011A00000000140443802400008004000100040A8
:1011B0000004014090F83D10012901D00120704742
:1011C000022180F83D100168CA6842F00102CA603D
:1011D00000681149884214D0B0F1804F11D00F49F6
:1011E00088420ED00E4988420BD00E49884208D062
:1011F0000D49884205D00D49884202D00C498842E9
:1012000004D1816801F00701062903D0016841F08B
:10121000010101600020704700000140000400400F
:1012200000080040000C0040000401400040014064
:101230000018004070B5044690F83C0000250128D5
:1012400017D0012684F83C60022084F83D00206815
:10125000826822F0770222F47F4282600868502878
:1012600038D00DDC20284FD005DC90B3102811D1E8
:101270004AE0022070BD302846D040280AD13BE029
:1012800060282FD070280DD0B0F5805F03D0B0F566
:10129000005F12D0012584F83D60002084F83C00F6
:1012A000284670BDCB68D1E90121206805F09BFC80
:1012B0002068816841F0770109E0CB68D1E901211C
:1012C000206805F090FC2068816841F480418160CD
:1012D000E1E719E0CA684968206805F059FD502126
:1012E000206806E0CA684968206805F062FD602150
:1012F000206805F082FCCEE7CA684968206805F0DE
:1013000047FD40212068F4E7226801461046F0E7D7
:101310002DE9F0410D46040003D094F83D0018B1CA
:1013200008E00120BDE8F081002084F83C00204660
:1013300000F040F8022084F83D002068816844F203
:10134000070291438160211D206805F0D3FB2268CC
:1013500090689169166A2B68AF69034340F20330C5
:10136000814341EA0721A868EF6908434FF6FC4131
:101370008843E96840EA0720014328692F6A000191
:1013800040EA0730084369686D6926F0AA0646EA14
:101390000515294393602268906154F8460B016259
:1013A000012004F81F09E0752076E0762077A0750B
:1013B0000020B7E770B586B0044614216846FEF7F2
:1013C000CAFF214A256800231F49103A02241F48FA
:1013D000B5F1804F1ED01E4EB54219D10D6845F0B3
:1013E00002050D60096801F002010591116841F0E4
:1013F00001011160116801F001010591C021009106
:10140000CDE90143CDE90334694600BFFFF7B4F9E4
:1014100006B070BD0D6845F001050D60096801F06A
:1014200001010591116841F001011160116801F09D
:101430000101059103210091CDE901430121CDE98D
:1014400003316946E2E700004038024000000240F4
:101450000004004070B590F83E60044690F83F509C
:1014600090F8423090F84320022021B104290ED098
:10147000012E1BD114E0012E18D1012B16D184F8B6
:101480003E0084F8420001220021206820E0012D66
:101490000CD1012A0AD184F83F0084F8430014E0FB
:1014A000012D03D1012B01D1012A01D0012070BDF2
:1014B00084F83E0084F83F0084F8420084F843003A
:1014C00001220021206805F081FB0122042120680F
:1014D00005F07CFB2068016841F0010101600020FB
:1014E00070BD70472DE9F04104460068C668056983
:1014F0004FF00007A90713D5B10711D5F91E0161F7
:1015000001202077206880698007204602D0FFF7FD
:10151000E8FF04E000F0DCF8204600F06EF92777E1
:10152000680716D5700714D521686FF004000861AC
:10153000022020772068806910F4407F204602D086
:10154000FFF7CFFF04E000F0C3F8204600F055F9A4
:101550002777280715D5300713D521686FF00800C5
:101560000861042020772068C0698007204602D0E7
:10157000FFF7B7FF04E000F0ABF8204600F03DF9BC
:101580002777E80616D5F00614D521686FF010000D
:101590000861082020772068C06910F4407F204649
:1015A00002D0FFF79EFF04E000F092F8204600F022
:1015B00024F92777E80708D0F00706D021686FF0F4
:1015C00001000861204600F07DF9280608D53006A4
:1015D00006D521686FF0800008612046FFF702FD04
:1015E000680608D5700606D521686FF040000861CE
:1015F000204600F0B7F9A8060AD5B00608D521683C
:101600006FF0200008612046BDE8F041FFF7EBBC19
:10161000BDE8F08110B586B0044614216846FEF797
:101620009AFE2368234C002123480222A34212D1B0
:10163000036843F001030360006800F001000590B7
:101640004FF410600090CDE901210120CDE9031095
:1016500069461A4813E01A4CA34214D1036843F0B8
:1016600008030360006800F0080005904FF4704024
:101670000090CDE90121CDE9031269461148FFF739
:101680007BF806B010BD104CA342FAD1036843F0BA
:1016900004030360006800F0040005904FF47070CC
:1016A0000090CDE901210320CDE9031069460748E8
:1016B000E5E7000000000140303802400000024031
:1016C00000080040000C02400004014000080240F5
:1016D000704770B5044690F83C0000260D4601287E
:1016E0000FD0012084F83C006AB1042A1DD0082ADA
:1016F0002FD00C2A3FD00126002084F83C00304631
:1017000070BD022070BD206805F080FA20688169F4
:1017100041F0080181612068816921F00401816143
:10172000206881692A69114311E0206805F09EFA5A
:101730002068816941F4006181612068816921F438
:1017400080618161206881692A6941EA02218161A1
:10175000D2E7206805F0C0FA2068C16941F00801AD
:10176000C1612068C16921F00401C1612068C169BB
:101770002A69114311E0206805F0E2FA2068C16986
:1017800041F40061C1612068C16921F48061C161D7
:101790002068C1692A6941EA0221C161ACE710B53C
:1017A000040003D094F83D0010B107E0012010BD03
:1017B000002084F83C00204600F01EF8022084F847
:1017C0003D00211D206805F095F9012084F84600B0
:1017D00084F83E0084F83F0084F8400084F841001B
:1017E00084F8420084F8430084F8440084F84500FB
:1017F00084F83D00002010BD7047704710B50446C6
:10180000022249B104290ED0082913D094F84100CE
:10181000012816D0012010BD94F83E000128F9D10E
:1018200084F83E200FE094F83F000128F2D184F8BC
:101830003F2008E094F840000128EBD184F84020D4
:1018400001E084F841200122206805F0BFF9164923
:101850002068164A884201D0904203D1436C43F479
:10186000004343642068884213D0B0F1804F10D009
:101870000F4988420DD00F4988420AD00E4988424C
:1018800007D0904205D00D49884202D00C498842C9
:1018900004D1816801F00701062903D0016841F0F5
:1018A00001010160002010BD000001400004014062
:1018B0000004004000080040000C004000400140CF
:1018C0000018004070B500681D49884237D10220D9
:1018D00004F022FF1B4D2860032004F01DFF1A4C6A
:1018E0004042206004F0F8FF18480088012801D128
:1018F00000F0C0FC164895ED000AD0ED000AB8EEE5
:10190000C00A144800F0F8FABDEEC00A124A1348A3
:1019100082ED000AD0ED000A94ED000A0D48B8EE01
:10192000C00A483000F04EFBBDEEC00A0C4810EE75
:10193000101A01601068BDE8704004F003BF70BD6C
:1019400000100040280000202C000020740000201F
:1019500040000020780200203800002044000020D1
:101960003C0000207047FEE72DE9F04F87B01421BE
:101970006846FEF7F0FC4F480024016841F0100172
:101980000160016801F010010591016841F08001DA
:101990000160016801F080010591016841F00101D9
:1019A0000160016801F001010591016841F0040145
:1019B0000160016801F004010591016841F0020134
:1019C0000160016801F002010591016841F0080120
:1019D00001600068DFF8E0A000F008000590002238
:1019E0001F215046FEF7C5FFDFF8D0B04FF4704816
:1019F000002241465846FEF7BCFF4FF48079002292
:101A000049462F48FEF7B5FF1F2001270326CDE9E1
:101A10000007CDE9024669465046FEF7ADFE20209C
:101A200000904FF48810CDE9010469462548FEF77F
:101A3000A3FE302002258DE8310069462248FEF7DA
:101A40009BFE009669465846CDE90145FEF794FE97
:101A50004FF4FF408DE8310069465046FEF78CFE9A
:101A6000CDE90246CDE9008769465846FEF784FE77
:101A7000CDE90246CDE9009769461148FEF77CFEA4
:101A80004FF488608DE8310069460D48FEF774FE1A
:101A900068028DE8310069460A48FEF76DFE0022B3
:101AA00002211720FEF7D8FF1720FEF7C7FF07B067
:101AB000BDE8F08F303802400010024000040240C0
:101AC000000C0240000002400008024010B596B031
:101AD00000240F9410941194129413941C216846BE
:101AE0001494FEF738FC202107A8FEF734FC2C489C
:101AF0002A49C0E9001444F29F11C0E9024104617F
:101B000044618461FFF7E2FA08B1FEF70AFE4FF480
:101B100080500F900FA92248FFF78CFB08B1FEF709
:101B200000FE1F48FFF73BFE08B1FEF7FAFD1394D5
:101B300013A91B481494FFF781FA08B1FEF7F1FDD1
:101B40006020CDE9000402940394049405940022DB
:101B5000694613480694FFF7BCFD08B1FEF7E1FDA6
:101B60000C2269460E48FFF7B4FD08B1FEF7D9FD17
:101B70000794089409944FF400500A94CDE90B405F
:101B800007A907480E94FFF72FFA08B1FEF7C9FD21
:101B90000348FFF73FFD16B010BD000000000140F4
:101BA000C800002010B58CB024216846FEF7D3FB96
:101BB0000024154809944FF080410A94C0E90014AC
:101BC0004FF6FF71C0E90241046184610320CDE951
:101BD00000040120CDE902040494CDE905400794F6
:101BE000694609480894FFF793FB08B1FEF799FD91
:101BF000099409A904480A94FFF720FA002801D0A3
:101C0000FEF78FFD0CB010BD1001002010B58CB098
:101C100024216846FEF79FFB0024164809941449C6
:101C20000A94C0E900144FF6FF71C0E90241046153
:101C300084610320CDE900040120CDE9020404946D
:101C4000CDE90540079469460A480894FFF760FB10
:101C500008B1FEF766FD099409A906480A94FFF742
:101C6000EDF9002801D0FEF75CFD0CB010BD0000BE
:101C7000000400405801002010B58EB000240794E5
:101C8000089409940A940B941C2168460C94FEF75E
:101C900062FB2A48284901605321C0E9011444F637
:101CA0001F61C0E903148461FFF710FA08B1FEF761
:101CB00038FD4FF48050079007A92048FFF7BAFA83
:101CC00008B1FEF72EFD1D48FFF769FD08B1FEF7CC
:101CD00028FD0B940BA919480C94FFF7AFF908B134
:101CE000FEF71FFD6020CDE9000402940022694642
:101CF00012480494FFF7EDFC08B1FEF712FD042230
:101D000069460E48FFF7E5FC08B1FEF70AFD082218
:101D100069460A48FFF7DDFC08B1FEF702FD0C2218
:101D200069460648FFF7D5FC08B1FEF7FAFC034800
:101D3000FFF770FC0EB010BD00080040A0010020AD
:101D40001CB500240E4800940C49019401605321F5
:101D5000C0E9011442F20F718461C160FFF7B6F966
:101D600008B1FEF7DEFC0094694605480194FFF7D0
:101D700065F9002801D0FEF7D4FC1CBD001000401E
:101D8000E801002010B596B000240F94109411942F
:101D9000129413941C2168461494FEF7DCFA202157
:101DA00007A8FEF7D8FA344832490160A721C0E9F4
:101DB000011444F61F61C0E9031444618461FFF714
:101DC00085F908B1FEF7ADFC4FF480500F900FA9D4
:101DD0002948FFF72FFA08B1FEF7A3FC2648FFF7C2
:101DE000DEFC08B1FEF79DFC139413A9224814945D
:101DF000FFF724F908B1FEF794FC6020CDE9000458
:101E00000294039404940594002269461A480694A7
:101E1000FFF75FFC08B1FEF784FC04226946164810
:101E2000FFF757FC08B1FEF77CFC08226946124810
:101E3000FFF74FFC08B1FEF774FC0C2269460E4810
:101E4000FFF747FC08B1FEF76CFC0794089409946F
:101E50004FF400500A94CDE90B4007A906480E94B0
:101E6000FFF7C2F808B1FEF75CFC0348FFF7D2FBAE
:101E700016B010BD0004014030020020FEE7000053
:101E800010B53C210448FFF7E5FABDE810403C21BD
:101E90000248FFF7DFBA00001001002058010020BF
:101EA00010B500211148FFF7A9FC0C210F48FFF7DE
:101EB000A5FC0F4C002201212046FEF75AFD00220E
:101EC00002212046FEF755FD002208212046FEF79C
:101ED00050FD002210212046FEF74BFD2046012236
:101EE000BDE810400421FEF744BD0000C8000020FA
:101EF00000100240FEE7000090B190ED101A80ED56
:101F0000111AD0ED0F1AC0ED101AC0ED060A80EDBF
:101F1000070A30EEC00A80ED0F0A017819B14BE0D4
:101F20009FED270A7047D0ED010A20EE801A80ED60
:101F3000091AD0ED0A0A90ED022A42EE000A30EEAC
:101F4000610AC0ED0A0A90ED0D2A80ED0E2A90ED8F
:101F50000C2A80ED0D2A80ED0C0AD0ED031A61EEFB
:101F6000801AC0ED0B1A90ED050AF4EEC00AF1EEEE
:101F700010FA09DCB1EE400AF4EEC00AF1EE10FAF4
:101F800002D390ED0A0A01E080ED0A0A31EE000A60
:101F900030EE210A80ED080AD0ED040AB4EEE00A22
:101FA000F1EE10FA06DCF1EE600AB4EEE00AF1EEB2
:101FB00010FA01D2C0ED080A90ED080A704700003F
:101FC0000000000090B190ED101A80ED111AD0EDD4
:101FD0000F1AC0ED101AC0ED060A80ED070A30EEA8
:101FE000C00A80ED0F0A017819B14BE09FED270A76
:101FF0007047D0ED010A20EE801A80ED091AD0ED6D
:102000000A0A90ED022A42EE000A30EE610AC0EDA3
:102010000A0A90ED0D2A80ED0E2A90ED0C2A80ED33
:102020000D2A80ED0C0AD0ED031A61EE801AC0ED86
:102030000B1A90ED050AF4EEC00AF1EE10FA09DC75
:10204000B1EE400AF4EEC00AF1EE10FA02D390EDC0
:102050000A0A01E080ED0A0A31EE000A30EE210A98
:1020600080ED080AD0ED040AB4EEE00AF1EE10FAB1
:1020700006DCF1EE600AB4EEE00AF1EE10FA01D2ED
:10208000C0ED080A90ED080A70470000000000004B
:10209000DFED0C1A9FED0C2A00B5F0EE610AB0EEF0
:1020A000420A0A4A00210A4800F014F808480021B0
:1020B000F0EE610AB0EE420A044A48305DF804EBE3
:1020C00000F036B800409C4500C0DA45C8970008CB
:1020D00078020020002828D0002A26D0017092ED36
:1020E000001A80ED011A92ED011A80ED021A92EDAC
:1020F000021A80ED031A80ED040A9FED0C0AC0ED70
:10210000050A80ED0E0A80ED0D0A80ED0C0A80EDC7
:10211000080A80ED0B0A80ED0A0A80ED090A80EDBD
:10212000110A80ED100A80ED0F0A704700000000D0
:10213000002828D0002A26D0017092ED001A80EDE8
:10214000011A92ED011A80ED021A92ED021A80ED49
:10215000031A80ED040A9FED0C0AC0ED050A80ED1C
:102160000E0A80ED0D0A80ED0C0A80ED080A80ED64
:102170000B0A80ED0A0A80ED090A80ED110A80ED54
:10218000100A80ED0F0A7047000000002DE9FF5F84
:10219000354C364A3648DDF838C00026B4F90070B0
:1021A000B0F9001015684FF002094FF00B0A4FF01C
:1021B000FF3B4FF00D0EBCF1010F0BD0BCF15A0FDD
:1021C00008D0BCF12D0F05D01CF12D0F02D01CF151
:1021D0005A0F1BD1DDF800C09C4507D0DDF804C0C4
:1021E0009C4503D0DDF808C09C452DD1012D2DD094
:1021F000022D15D0032D09D1002F07D171B301296C
:1022000004D1C2F800B00680A4F800E0BDE8FF9F4A
:102210000129FBD1C2F800900680A4F800A0F5E7E0
:10222000002FF3D151B10129F0D1032111600680B3
:102230000C202080EAE7022DDED0E7E704B0002082
:10224000BDE8F05F05F01ABE012DF4D10029DFD101
:1022500004B00020BDE8F05F05F0CABE04B0002065
:10226000BDE8F05F05F0ECB96200002088000020B6
:10227000600000202DE9FC5FFC4AFD48FF4E11681C
:10228000B0F900000190FB48FE4BDFF8ECA3B0F979
:1022900000000090FA48B6F900E00024B0F9000010
:1022A000D3F800C088464FF0070B0125E1B1F64F87
:1022B000DFF8D893B8F1010FB7F90030B9F9002071
:1022C0006CD018F15A0F74D0B8F15A0F72D018F1BF
:1022D0002D0F02F05380B8F12D0F3CD1BCF1020F4D
:1022E00002F08B8502F0A2BDE64BBCF1000F1BD0C3
:1022F000BCF1010F2FD1BEF1000F2CD1E448DD4914
:102300000580009F012F26D1DDF80480D84FB8F159
:10231000010F22D017DC6FF0590CE0451FD06FF091
:102320002C0CE04515D12AE0D54940B1012812D145
:102330001D600C8035802220AAF80000F2E3BDE881
:10234000FC5F06F037BBB8F12D0F24D0B8F15A0F5F
:1023500008D005800C80BDE8FC9F156011E0C2F834
:1023600000C001E05A25156004800C80022018602E
:102370003C80A6F800B00420AAF80000EBE7C2F801
:1023800000C004800C80022018603C80A6F800B0D9
:10239000AAF80050DFE74FF02D0CF0E7BCF1020F78
:1023A00009D0B849BCF1030F14D0BCF1040F39D0E7
:1023B00059E0FBE3FBE3B24910B1012803D052E03E
:1023C00005F08AFE4FE0AF4A032010600C80092020
:1023D000308024E0BEF1000F45D113B1012B03D0B2
:1023E00041E005F017FF3EE012B1012A05D03AE0C6
:1023F0006FF0590006F046FB35E0A14A10B1012804
:1024000003D030E006F0E2F82DE0042008603C80C4
:10241000A9F80040148035802220AAF800009D48C9
:10242000058020E0BEF1000F1DD19948914A05803A
:10243000009B012B17D1DDF804C0DFF83482BCF11A
:10244000010F29D007DC6FF059039C453ED05B108B
:102450009C4506D13AE0BCF12D0F46D0BCF15A0F95
:1024600023D0058014808148406810F15A0F3ED077
:102470005A2873D010F12D0F71D02D288AD1DFF892
:102480000482D8F8000005286AD0062869D00728F9
:1024900068D0082867D0F1E3744B5D600480148035
:1024A00005200860A8F80040DDE7DFF8C0C15A2326
:1024B000CCF804300480148005200860A8F800409F
:1024C000A6F800B00420AAF80000CCE7DFF89CC111
:1024D000CCF804300480148005200860A8F800407F
:1024E000A6F800B0AAF80050BDE72D23EEE7DFF80C
:1024F0009481D8F80000052804D0062813D00728B6
:1025000042D060E05E48B0F9001011B1012903D05B
:1025100059E005F0E1FD56E00621C8F800100480FE
:10252000092030802DE0B7F9000010B1012803D058
:1025300049E005F06FFE46E0B9F9001011B101293C
:1025400005D040E06FF0B30006F09CFA3BE04C4948
:10255000B1F9002042B1012A09D034E017E14DE27F
:10256000A3E3BBE3CAE3F6E306F030F82BE0C8F8D8
:1025700000B03C80A9F800400C8035802220AAF8E9
:102580000000444805801EE03088E0B940483949E1
:1025900005800A88012A16D1354AB2F900C0BCF17B
:1025A000010F15D007DC6FF059039C4513D05B1069
:1025B0009C4506D128E0BCF12D0F49D0BCF15A0F43
:1025C00014D005800C80294880685A2842D029E020
:1025D000264B9D6003E0DFF894C0CCF808300480FF
:1025E0000C800820C8F8000014801BE01F4F5A23FD
:1025F000BB6004800C800820C8F800001480A6F896
:1026000000B0AAF8005047E0DFF860C0CCF808300E
:1026100004800C800820C8F800001480A6F800B0E0
:10262000AAF800501148806810F12D0F55D02D28C0
:102630007FF4A4AED8F8001008296ED009296DD017
:102640000A296CD00B29F3D12D236FF0590223E115
:102650002D23D9E7D8F8001008291DD0092929D041
:102660000A29E5D15A235A42C8E20000A8000020F6
:10267000640000206A0000206C000020620000203E
:10268000600000207C0000205E0000205800002038
:10269000680000206E000020F749B1F90000002812
:1026A00002F0F9870128C3D10920C8F800000C8086
:1026B00002F08BBB31880029BAD1B7F9001000298C
:1026C00003F079810129B3D1B9F900200AB92D208D
:1026D000E3E3012AACD10A22E2E2D8F8001008298B
:1026E0000AD009293BD00A291AD00B29A0D16FF0B2
:1026F0002C000346420036E1B7F90010002903F030
:102700004B81012994D1B9F9002012B96FF08600EC
:10271000C3E3012A8CD10922A0E212E01FE025E0E8
:102720003188002984D1B7F900100029C8D00129C7
:1027300089D1B9F90020002A75D100BF6FF0590086
:10274000ABE3B7F900100029D9D0012989D1B9F933
:102750000020002ADDD100BF6FF02C009DE3C649A8
:10276000B1F90020002A03F0228150E231880029CB
:1027700099D1B7F900100029A2D0012993D1B9F954
:102780000020002AD8D15A2087E30B2288E2BB48D8
:10279000006805281DD1B7F9000010B1012804D048
:1027A00062E0002004F05EFE13E0B9F9001011B100
:1027B000012905D058E06FF0B30006F063F908E096
:1027C000AD49B1F9002012B1012A09D04CE005F061
:1027D000FDFEAA4A106806280FD0072824D043E03F
:1027E000A64B062204201A603C80A9F800400C8009
:1027F000A3493580AAF8005008803088A0BB9E48C5
:10280000B0F9001011B1012903D02DE005F064FCEE
:102810002AE09A4AC2F800B0048004203080984828
:102820000580332059E004E23088E8B9954896499C
:1028300005800B88012B17D1944BB3F90080B8F1B8
:10284000010F2DD008DC6FF0590CE04539D06FF046
:102850002C0CE04506D134E0B8F12D0F40D0B8F192
:102860005A0F22D005800C808948806810F15A0FD9
:1028700039D010F12D0F78D02D287FF47FAD7F480F
:10288000016808296DD0092902F069810A2969D0F7
:102890000B29F2D12D235A2201212D2002F048B913
:1028A000DFF8ECC1CCF8085005E0DFF8E4814FF028
:1028B0005A0CC8F808C004800C80082010601C80E6
:1028C000D2E7DFF8CC81C8F808C004800C8008206B
:1028D00010601C80A6F800B00420AAF80000C3E72E
:1028E0004FF02D0CEDE765480168082908D009294B
:1028F000CAD00A291CD00B29BFD16FF0590040E083
:10290000B7F90010002903F056800129B5D1B9F9B3
:10291000002012B96FF0B300BFE2012AADD1092245
:10292000EFE3012AA9D10A2202600C8002F0E9B883
:1029300031880029A1D1B7F900100029E3D001297D
:102940009BD1B9F90020002A3FF406AF012A94D1A7
:102950000B2202604F4805603C80A9F8004015E555
:1029600003E032E03CE0012198E74448016808298F
:102970000AD0092988D00A2919D00B2989D16FF0EA
:102980002C0003465A22EEE7B7F900100029BAD00E
:102990000129B1D1B9F90020002A3FF4B7AE012ACC
:1029A000AAD10922026034483C8004806BE231885D
:1029B0000029A1D1B7F900100029A4D001299BD189
:1029C000B9F90020002AC1D1B8E6B7F900100029F2
:1029D00099D0012990D1B9F90020002ADFD1BBE6B6
:1029E0003188002988D1B7F9001000298BD001293E
:1029F0008CD1B9F90020002AA8D1C4E6DFF87C8088
:102A0000D8F80000052806D006281DD007282BD0AE
:102A1000082866D08FE0B7F9000010B1012804D073
:102A200089E0002004F01EFD85E0B9F9001011B125
:102A3000012902D07FE02D2038E00621C8F80010DF
:102A40003C80A9F8004076E00B48B0F9001011B1C5
:102A5000012903D06FE005F0B1FE6CE0C8F800B0CA
:102A600004800920308039E0308808BBB7F90000C5
:102A700090B1012813D05EE0600000207C000020AF
:102A80006E000020680000206A0000206400002022
:102A9000A80000208000002005F0BCFB4BE0B9F945
:102AA000001011B1012904D045E0872005F0EAFFAC
:102AB00041E0FA49B1F9002012B1012A03D03AE00D
:102AC00005F084FD37E00822C8F800203C80A9F812
:102AD00000400C8035802220AAF80000F0480580D4
:102AE00029E0308838BBEF48EF4905800A88012A81
:102AF00021D1EE4AB2F900C0BCF1010F32D012DC94
:102B00006FF059039C4533D05B109C4511D1DFF821
:102B1000A0C3CCF8083004800C800920C8F800005D
:102B2000148008E09CE1BCF12D0F20D0BCF15A0FBD
:102B30001BD005800C80DE48806810F15A0F26D02B
:102B40005A2850D02D287FF419ACD8F80010092944
:102B500078D00A2973D00B2972D00C29F3D12D23F8
:102B6000424299E6D24B9D60D5E75A2300E02D23DF
:102B7000DFF83CC3CCF8083004800C800920C8F88A
:102B800000001480A6F800B0AAF80050D3E7D8F8E7
:102B9000001009290CD00A2964D00B2915D00C2962
:102BA000D1D16FF0590003464210DCE66EE1F5E347
:102BB000B7F90010002902F0EF860129C3D1B9F955
:102BC0000020002A3FF4A6AE46E131880029BAD1A0
:102BD000B7F90010002902F0EE860129B3D1B9F946
:102BE000002072BBB8E5D8F80010092909D00A29DD
:102BF00011D00B29A7D15A236FF02C0201215A20A2
:102C00004CE6A649B1F90020002A02F04485012AC9
:102C100099D10A222FE03188002994D1B7F9001008
:102C20000029D8D001298ED1B9F90020002A3FF41B
:102C30004EAD012A3FF4A9ADBDE8FC9F02E011E0D2
:102C40001DE02AE0B7F900100029B4D00129F3D122
:102C5000B9F90020002AC5D0FEE00A22C8F80020F9
:102C600002F0EEBC8D49B1F90020002A02F09F86E7
:102C7000012AE1D10B22C8F80020FDE36AE0318887
:102C80000029D9D1B7F900100029A4D00129D3D146
:102C9000B9F90020002A3FF4B0AE012ACCD10C22B1
:102CA000C8F8002083480560DAE7B7F9000010B1E2
:102CB000012804D06FE0002004F0D4FB6BE0B9F9E8
:102CC000001011B1012902D065E0872028E006211B
:102CD000C8F800103C80A9F800405CE06F48B0F9EB
:102CE000001011B1012903D055E005F067FD52E055
:102CF000C8F800B004800920308029E0308848BB43
:102D0000B7F9000010B1012803D044E005F082FAC1
:102D100041E0B9F9001011B1012904D03BE02D20A8
:102D200005F0B0FE37E05D49B1F9002012B1012A8B
:102D300003D030E005F04AFC2DE00822C8F800205E
:102D40003C80A9F800400C8035802220AAF80000C1
:102D5000534805801FE0FFE73088E0B951485249E9
:102D600005800A88012A16D1504AB2F900C0BCF188
:102D7000010F2AD007DC6FF059039C4529D05B1066
:102D80009C4506D125E0BCF12D0F31D0BCF15A0F86
:102D90001ED005800C804648806810F15A0F33D051
:102DA0005A2840D02D307FF447AFD8F800100929B9
:102DB00046D00A293FF456AF0B2954D00C29F2D142
:102DC0006FF02C0003462D22CDE5394B9D6014E0B9
:102DD0005A23DFF8DCC0CCF8083004800C800920CE
:102DE000C8F800001480A6F800B0AAF80050D2E796
:102DF000DFF8BCC02D23CCF8083004800C800920FB
:102E0000C8F800001480C6E7D8F8001009293FF47C
:102E1000CFAE0A29CED00B293FF4D7AE0C29C2D1B0
:102E20006FF05900CEE7D8F8001009293FF4E9AE59
:102E30000A293FF4F0AE0B29B5D15A232D22DDE645
:102E4000B7F90010002902F0A7850129ABD1B9F923
:102E50000020002A3FF45AAC012A3FF4FEAEEBE614
:102E60000F480580E8E631880029F8D1B7F900104D
:102E7000002902F0A0850129F1D1B9F90020002A2A
:102E80007FF40BAF5AE4A9F80040D5E6BCF1020F7D
:102E900026D18BB1012B13D06DE0E7E2600000205A
:102EA0006E000020680000206A00002064000020FE
:102EB000A800002080000020002004F0D3FA0FE0DA
:102EC00012B1012A05D056E06FF0590005F0DAFD85
:102ED00006E0F64A10B1012809D04CE005F076FB77
:102EE000F34A106803280FD0042824D043E0F04BA5
:102EF0000320F04918603C80A9F800401480358018
:102F0000AAF80050042008803088A0BBE748B0F938
:102F1000001011B1012903D02DE005F0DDF82AE001
:102F2000E34A042111600480E248318033210580A6
:102F3000AAF800101FE03088E8B9DF48DF490580B3
:102F40000B88012B17D1DE4BB3F90080B8F1010FCC
:102F500018D008DC6FF0590CE04522D06FF02C0C33
:102F6000E04506D138E0B8F12D0F58D0B8F15A0F2E
:102F700021D005800C80D3484168012952D05A29BC
:102F800074D037E0DFF83CC3CCF8045004800C80E8
:102F9000052010601C80A6F800B00420AAF80000EC
:102FA0004EE0DFF82083C8F804C004800C800520C0
:102FB00010601C801EE0DFF80C834FF05A0CC8F83C
:102FC00004C004800C80052010601C80A6F800B0AE
:102FD0000220AAF8000077E1DFF8E882C8F804C010
:102FE00004800C80052010601C80A6F800B004202E
:102FF000AAF80000B348406810F12D0F7BD02D28AF
:103000007FF42DAFAA480168052975D0062974D030
:10301000072973D0082972D0092971D095E34FF0A0
:103020002D0CD9E7A2490A68052A09D0062A1ED024
:10303000072A2FD0082A3CD08E46092A62D081E088
:10304000B7F9000070B301287CD1B9F9000010B1C4
:10305000012804D076E05A2005F014FD72E0944A6D
:10306000062010603C80A9F800406BE013E18F4817
:10307000B0F9002012B1012A03D063E005F09EFBF5
:1030800060E0C1F800B0048009208A493080042043
:10309000088057E0308800BBB7F9000010B1012864
:1030A00003D04FE005F0B6F84CE0082008603C8003
:1030B00048E0B9F9002012B1012A05D042E0A6F893
:1030C00000B0AAF80050C6E7784AB2F9003013B150
:1030D000012B03D036E005F079FA33E009230B60C9
:1030E0003C80A9F80040148035802220AAF8000016
:1030F0007048058026E0F5E11DE332E344E352E346
:1031000077E3F8E33188E9B96B496C4A0D8013889D
:10311000012B17D16A4BB3F90080B8F1010F16D01B
:1031200008DC6FF0590CE04513D06FF02C0CE04533
:1031300006D11FE0B8F12D0F3DD0B8F15A0F11D0D4
:103140000D8014805F4880685A2837D01EE0856063
:1031500001E0C0F808C00C8014800A20CEF80000FE
:103160001C8013E05A2787600C8014800A20CEF858
:103170000000A9E3C0F808C00C8014800A20CEF833
:1031800000001C80A6F800B0AAF800504D488068E6
:1031900010F12D0F38D02D287FF461AE444801681E
:1031A0000A295DD00B2967D00C2966D00D29F3D1EF
:1031B0002D2301223BE24FF02D0CDBE73C48016858
:1031C0000A2906D00B2910D00C29E5D15A23012257
:1031D000A1E33648B0F90010002902F05C82012911
:1031E000DAD1334A0B211160F1E331880029D3D1C0
:1031F000B7F90010002902F0DE830129CCD1B9F91A
:103200000020C2BBFFF763BA294801680A290AD027
:103210000B29C8D00C2916D00D29BDD16FF02C0078
:103220000346012237E1B7F90010002902F0B48308
:103230000129B1D1B9F90020002A3FF467AA012A77
:10324000AAD10B226FE331880029A5D1B7F900106C
:103250000029D0D001299FD1B9F900202ABB11E65D
:10326000B7F900100029E1D0012995D1B9F9002062
:10327000002AE4D1B6E452E344E2318800298BD13C
:10328000B7F900100029B6D0012985D1B9F900207D
:103290005AB9FFF778BA06490A68052A14D0062AEF
:1032A0003FD08E46072A54D073E059E260000020D8
:1032B0007C0000206E000020680000206A000020D2
:1032C00064000020A8000020B7F9000010B1012818
:1032D00003D05EE004F09EFF5BE0B9F9001011B18D
:1032E000012905D055E06FF0B30005F0CBFB50E0AD
:1032F000F649B1F9002012B1012A03D049E005F0E6
:1033000065F946E0F24B062204201A603C80A9F8D9
:1033100000400C803580EF49AAF8000002200880A8
:1033200037E03088A8BBE94AB2F9000010B10128A3
:1033300003D02EE004F0D0FE2BE0C1F800B0E54948
:10334000148004203080088040F25510AAF8000054
:103350001FE03188E9B9E049E04A0D801388012B6C
:1033600017D1DF4BB3F90080B8F1010F17D008DC9B
:103370006FF0590CE0451AD06FF02C0CE04506D1E7
:1033800015E0B8F12D0F33D0B8F15A0F2DD00D80C4
:103390001480D448806801282DD010E0DFE28560D9
:1033A0000C8014800820CEF800001C8030E0C0F8AB
:1033B00008C00C8014800820CEF800001C80C9488A
:1033C000806810F12D0F55D02D287FF448ADC048EE
:1033D0000168082976D0092973D00A293FF400AB87
:1033E0000B29F2D12D235A2221E14FF05A0CDEE7AE
:1033F0004FF02D0CDBE7B6480168082908D00929F1
:10340000EAD00A2923D00B29DFD101235A2249E12E
:10341000B7F90000002802F0CE820128D5D1B9F911
:10342000000028B10128D0D1A94A0920106017E472
:10343000A6F800B00220AAF8000023E5012AC4D1B2
:103440000A2202600C80FDE3A249088007E531886A
:103450000029FBD1B7F900100029DCD00129F5D1F2
:10346000B9F90020002A7FF471AA8720BDE8FC5F2B
:1034700005F008BB964800E05BE2016808290DD022
:103480000929A9D00A293FF492AA0B29DED16FF0AD
:103490002C0003465A226FF05901F4E3B7F90010EB
:1034A0000029B8D00129D1D1B9F90020002A7FF430
:1034B00034AAA6F800B00220AAF80000FFF726B947
:1034C00000E0EFE3B7F900100029A4D00129BDD135
:1034D000B9F90020002AEAD1A6F800B00220AAF823
:1034E0000000C7E67A480168052908D006291AD0E5
:1034F00007292BD0082938D009295BD081E0B7F9FA
:10350000000058B301287CD1B9F9001011B101298C
:1035100002D076E02D2033E06D4A062111603C8018
:10352000A9F800406DE06949B1F9002012B1012A03
:1035300003D066E005F042F963E0C0F800B00C800B
:10354000092064493080042008805AE0318801BB9A
:10355000B7F9001011B1012903D052E004F05AFE6E
:103560004FE0082101603C804BE0B9F9002012B126
:10357000012A08D045E0A6F800B0AAF8005087203C
:1035800005F080FA3DE0514BB3F9002012B1012A59
:1035900003D036E005F01AF833E0092202603C80DF
:1035A000A9F800401C8035802220AAF80000494874
:1035B000058026E0318821BB4749484A0D801388A1
:1035C000012B1ED1464BB3F900C0BCF1010F7CD0DA
:1035D0000FDC6FF05908C44503D06FF02C08C445C8
:1035E0000DD1404DC5F808800C8014800A2101607F
:1035F000FBE3BCF12D0F2DD0BCF15A0F1BD00D8079
:1036000014803848806801283FD05A287BD02D2864
:103610007FF41CAF2E4801680A292AD00B2971D0EB
:103620000C293FF42AAE0D29F2D12D235A426FF016
:103630005901FFF732B9DFF8ACC05A27CCF808704F
:103640000C8014800A2101601C80A6F800B0AAF842
:10365000005065E0DFF88C804FF02D0CC8F808C0F2
:103660000C8014800A2101601C80A6F800B0AAF822
:103670000050B7F90000002871D00128C8D1B9F96D
:10368000001000293FF4F6AD1BE0114801680A293B
:103690000CD00B29C3D00C2927D00D29B8D1012378
:1036A0006FF02C026FF059010120ECE2B7F9000035
:1036B0000028E1D00128ABD1B9F9001000293FF46E
:1036C000CEAD0129A4D10B21EEE3C8E060000020BB
:1036D0007C0000206E000020680000206A000020AE
:1036E00064000020A80000200DE0318800298FD15F
:1036F000B7F9001000296ED0012989D1B9F900204D
:1037000072BBB2E63EE1FC4801680A2908D00B29E9
:103710003FF46BAD0C2987D15A236FF02C02FAE0ED
:10372000F649B1F9000000287DD00128A6D1F24A5F
:103730000B201060FDE0B7F9000068B3012804D148
:10374000B9F9001011B1012902D081E0872035E0DC
:10375000E94A062111603C80A9F8004078E043E383
:10376000CAE0E649B1F9002012B1012A03D06FE0A6
:1037700005F024F86CE0C0F800B00C800920E049A6
:1037800030800420088063E0318801BBB7F9001065
:1037900011B1012903D05BE004F03CFD58E00821A1
:1037A00001603C8054E0B9F9002012B1012A08D030
:1037B0004EE0A6F800B0AAF800502D2005F062F9FE
:1037C00046E0CE4AB2F9003013B1012B04D03FE0FD
:1037D00004F0FCFE3CE02EE1092303603C80A9F8E4
:1037E0000040148035802220AAF80000C4480580DB
:1037F0002EE0318861BBC349C34A0D801388012B79
:1038000026D1C24BB3F90080B8F1010F27D017DCE5
:103810006FF0590CE04530D06FF02C0CE04515D11D
:10382000DFF8EC8200E0EFE3C8F808C00C801480F9
:103830000A2101601C80A6F800B0AAF8005025E01B
:10384000B8F12D0F46D0B8F15A0F34D00D80148046
:10385000AF488068012840D05A2851D016E0DFF8E0
:10386000B0C2CCF808500C8014800A2101601C8082
:10387000A6F800B0AAF8005018E7DFF89482C8F85C
:1038800008C00C8014800A2101601C80A048806858
:103890002D307FF4DBAD984801680A293FF4C3ACB2
:1038A0000B296FD00C2946D00D29F2D16FF02C00D6
:1038B00003462D22EFE5DFF858C25A27CCF80870EE
:1038C0000C8014800A2101601C80A6F800B0AAF8C0
:1038D00000507EE44FF02D0CCFE7874801680A299D
:1038E000CAD00B29DDD00C293FF4FFAE0D29D0D171
:1038F00001232D22D6E616E0012ACAD10D22F0E3DB
:103900007D4801680A29E4D00B293FF46EAC0C29EC
:10391000BFD15A232D226FF05901FFF770B9012A48
:10392000B7D10C22DDE3026081E5012AB1D10C227E
:10393000F4E30C80F3E331880029AAD1B7F9001031
:10394000002978D00129A4D1B9F9001000293FF449
:1039500086AC01299DD10D210160FFF7A3B9BCF10F
:10396000020F17D113B1012B04D05FE0002003F048
:1039700079FD0FE012B1012A05D057E05A2005F079
:1039800081F807E0CFE15D4A10B1012809D04DE090
:1039900004F01CFE584A106803280FD0042825D0D4
:1039A00044E0554B0320564918603C80A9F800407C
:1039B00014803580AAF80050042008803088A8BB05
:1039C0004E49B1F9000018B1012804D02EE0B0E34F
:1039D00004F082FB2AE0484A042010600C8030800A
:1039E000474805803320AAF800001FE03088E8B976
:1039F0004448454905800B88012B17D1434BB3F947
:103A00000080B8F1010F17D008DC6FF0590CE045C9
:103A100021D06FF02C0CE04506D135E0B8F12D0F28
:103A200058D0B8F15A0F23D005800C80384A50681E
:103A3000012852D036E0A5E1DFF8D4C0CCF804501C
:103A400004800C80052010601C80A6F800B00420C3
:103A5000AAF800005EE0DFF8B880C8F804C004806F
:103A60000C80052010601C80A6F800B0022017E032
:103A7000DFF89C804FF05A0CC8F804C004800C801A
:103A8000052010601C800DE0DFF88480C8F804C0B9
:103A900004800C80052010601C80A6F800B0042073
:103AA000AAF800001A48406810F15A0F71D010F1BE
:103AB0002D0F6FD02D287FF4C9AC0F480168052960
:103AC00069D0062968D0072967D0082972D009294A
:103AD00071D0E6E34FF02D0CD6E7074801680529C1
:103AE00018D006292DD007293ED008294BD086466C
:103AF000092972D091E000007C00002060000020C5
:103B00006E000020680000206A0000206400002091
:103B1000A8000020B7F9000070B301287DD1B9F9E1
:103B2000001011B1012905D077E06FF0590004F0C1
:103B3000A9FF72E0F64A062111603C80A9F8004016
:103B40006BE0F449B1F9002012B1012A03D064E01E
:103B500004F034FE61E0C0F800B00C800920308031
:103B6000ED480421018058E0318811BBB7F90010FD
:103B700011B1012903D050E004F04CFB4DE00821C5
:103B800001603C8049E0B9F900203AB1012A0AD02D
:103B900043E0BEE0E3E1F4E208E31BE3A6F800B093
:103BA000AAF80050C1E7DB4AB2F9003023B1012B7B
:103BB00005D032E01EE345E304F008FD2DE00923C3
:103BC00003603C80A9F80040148035802220AAF8C8
:103BD0000000D148058020E0FFE73088E8B9CF48F1
:103BE000CF4905800B88012B17D1CE4BB3F900804C
:103BF000B8F1010F2DD008DC6FF0590CE04535D03D
:103C00006FF02C0CE04506D130E0B8F12D0F3BD021
:103C1000B8F15A0F1FD005800C80C348806810F19E
:103C20005A0F34D010F12D0F4CD02D287FF40EAC4C
:103C3000B74801680A2961D00B2974D00C293FF4D8
:103C40001CAB00E03DE10D29F0D12D231A465A218D
:103C50002AE5956003E04FF05A0CC2F808C00480D2
:103C60000C800A20CEF800001C80D6E7C2F808C0FD
:103C700004800C800A20CEF800001C80A6F800B05A
:103C8000AAF80050C9E77BE24FF02D0CEEE7A04800
:103C900001680A2975D00B2905D00C29C6D16FF00F
:103CA00059021CE043E131880029BFD1B7F9001067
:103CB000002967D00129B9D1B9F90020002A7FF481
:103CC0002EAE0EE4924801680A290AD00B2972D060
:103CD0000C293FF4B8AA0D29A8D16FF02C02134685
:103CE000B5E7B7F9001000297ED001299ED1B9F9B6
:103CF0000020002A7FF4A3AAFEF7E9BCB7F9001060
:103D00000029F1D0012991D1B9F90020002AF1D17F
:103D1000F7E47F480068052806D07D4A062832D09F
:103D2000072849D06BE087E3B7F9000010B10128FC
:103D300003D064E004F06EFA61E0B9F9001011B14B
:103D4000012905D05BE06FF0B30004F09BFE56E064
:103D50007049B1F9002012B1012A03D04FE004F0FC
:103D600035FC4CE06A4B06226B481A603C80A9F88F
:103D700000400C8035800421AAF800100221018047
:103D80003DE071E2F8E0308880BB6248B0F9001095
:103D900011B1012903D032E004F09EF92FE0C2F8FE
:103DA00000B004805C4904203080088040F2551047
:103DB000AAF8000023E000E23088B8B95748584913
:103DC00005800B88012B1AD1564BB3F90080B8F14E
:103DD000010F19D00BDC6FF0590CE0451ED06FF0CD
:103DE0002C0CE04509D119E0FFE1EFE307E0B8F161
:103DF0002D0F35D0B8F15A0F2FD005800C804A48CE
:103E0000806801282FD012E0DFF81CC1CCF80850E0
:103E100004800C80082010601C8032E0DFF80881EC
:103E2000C8F808C004800C80082010601C803E4840
:103E3000806810F12D0F49D02D287FF410A8344848
:103E4000016808297BD0092972D00A293EF4C8AD3F
:103E50000B29F2D12D231A4646E04FF05A0CDDE72C
:103E60004FF02D0CDAE72A480168082909D0092902
:103E70001DD00A293FF4EBAA0B29DED101231A46F3
:103E800032E0B7F90000002876D00128D5D1B9F981
:103E9000001031B9A6F800B00220AAF80000FEF721
:103EA00072BC0129C9D10921194A1160F7E3194AE5
:103EB000B2F9001000296ED00129BED10A2101609B
:103EC0001480092030800220FFF7BEBA1048016834
:103ED00008290ED009292BD00A293EF468AD0B29F8
:103EE000ABD16FF02C0213465FF05A016FF059000E
:103EF00046E1B7F900100029C6D001299DD1B9F9D2
:103F00000020002A7EF409ADA6F800B00220EFE3FD
:103F10007C000020600000206E000020680000206F
:103F20006A00002064000020A800002007E0FFE7EE
:103F3000F949B1F90020002ABDD0FFF77FBAB7F9DF
:103F400000100029A0D0012997D1B9F90020002A3A
:103F5000D8D1A6F800B00220AAF80000D8E6EF48B1
:103F60000168052909D006291DD007292ED0082966
:103F70003BD0092960D07FE056E1B7F9000068B373
:103F8000012879D1B9F9001011B1012904D073E0E9
:103F90006FF0860035E03CE1E04A062111603C808C
:103FA000A9F8004068E0DC49B1F9002012B1012A0B
:103FB00003D061E004F002FC5EE0C0F800B00C80C9
:103FC00009203080D6480421018055E0318811BB9A
:103FD000B7F9001011B1012903D04DE004F01AF92E
:103FE0004AE0082101603C8046E0B9F9002012B1A6
:103FF000012A0AD040E0A6F800B0AAF800506FF0FD
:104000002C0004F03FFD37E0EAE3C34AB2F9003088
:1040100013B1012B03D02FE004F0D8FA2CE00923D0
:1040200003603C80A9F80040148035802220AAF863
:104030000000BB4805801FE03188E9B9B949BA4A98
:104040000D801388012B17D1B84BB3F90080B8F15C
:10405000010F70D008DC6FF0590CE04511D06FF003
:104060002C0CE04506D11CE0B8F12D0F3AD0B8F188
:104070005A0F14D00D801480AD488068012834D0C8
:1040800018E0DFF8AC82C8F808C00C8014800A2160
:1040900001601C80A6F800B0AAF800500AE04FF0BA
:1040A0005A0CDFF88C82C8F808C00C8014800A21F2
:1040B00001601C809E48806810F15A0F51D02D2855
:1040C0007EF4CDAE954801680A293FF417AE0B295E
:1040D00073D00C293FF4D1A80D29F1D12D231A4614
:1040E0004BE0F5E34FF02D0CCBE78C4908680A282C
:1040F00008D00B2814D00C281ED00D28E0D10123A5
:104100001A463AE0B7F9000000286ED00128D7D14E
:10411000B9F9001000297FF4D4AAC0E6E7E3F4E37C
:104120007D48B0F90020002A73D0012AC8D10C22A2
:104130000A600480E9E3B9E030880028C0D1B7F90B
:104140000000002870D00128BAD1B9F90020002A57
:104150003FF4DEAD012AB3D10D220A6075490D602E
:104160009DE26E4801680A297ED00B293FF49BAD81
:104170000C29A5D16FF0590213465A216FF02C007B
:10418000F1E3B7F9000068B3012804D1B9F90010D0
:1041900011B1012903D084E06FF02C0036E05F4AB2
:1041A000062111603C80A9F800407AE05A49B1F933
:1041B00000201AB1012A04D073E016E104F0FEFADF
:1041C0006FE0C0F800B00C80092055493080042011
:1041D000088066E0318819BBB7F9001011B10129D8
:1041E00004D05EE004F016F85BE08FE30821016084
:1041F0003C8056E0B9F9002012B1012A0AD050E003
:10420000A6F800B0AAF800506FF0860004F03AFC5F
:1042100047E0DBE3404AB2F9003013B1012B04D090
:104220003FE004F0D3F93CE0D8E2092303603C808E
:10423000A9F80040148035802220AAF800003848F0
:1042400005802EE0318861BB3649374A0D801388DE
:10425000012B26D1354BB3F90080B8F1010F25D0E1
:1042600017DC6FF0590C00E0E7E0E04503D06FF099
:104270002C0CE04513D1DFF8B880C8F808C00C80DA
:1042800014800A2101601C80A6F800B0AAF8005032
:1042900028E0B8F12D0F1AD0B8F15A0F14D00D80C4
:1042A000148023488068012846D01BE0DFF880C0D6
:1042B000CCF808500C8014800A2101601C80A6F8FC
:1042C00000B0AAF800501DE74FF05A0C01E04FF083
:1042D0002D0CDFF85C80C8F808C00C8014800A211F
:1042E00001601C801248806810F15A0F32D02D30C6
:1042F0007EF4B5AD094801680A293FF4F2AC0B29F8
:1043000073D00C293EF49FAF0D29F1D16FF02C0230
:1043100013465A21FEF7C1BA600000207C0000203D
:104320006E000020680000206A0000206400002069
:10433000A800002080000020F94801680A29C2D0A6
:104340000B2979D00C293FF4D0A90D29D0D1012314
:104350001A46DEE7F24801680A296ED00B293FF4BD
:10436000A2AC0C29C4D16FF05902D1E7012ABFD108
:104370000B22BCE20129BBD10C21EDE3BCF1020F01
:1043800017D113B1012B04D081E0002003F06AF8AB
:104390000FE012B1012A05D079E06FF02C0004F093
:1043A00071FB06E0DF4A10B101280BD06FE004F08A
:1043B00005FADFF86C83D8F8000003280DD0042834
:1043C0003CD064E0D64B032018603C80A9F8004044
:1043D000148009203080D4480580308858BBB7F954
:1043E000000018B1012804D051E098E103F012FF59
:1043F0004DE0B9F9001011B1012905D047E06FF087
:104400002C0004F03FFB42E0C649B1F9002012B194
:10441000012A03D03BE004F0D9F838E0C04B042275
:10442000C1481A603C80A9F800400C8035802221E8
:10443000AAF8001005802AE0A8E1D0E1308830BB5E
:10444000BA48BB4905800A88012A20D1B94AB2F985
:1044500000C0BCF1010F1FD011DC6FF059039C4567
:1044600027D05B109C4510D1DFF8CCC2CCF80430CB
:1044700004800C800520C8F80000148038E0BCF1EE
:104480002D0F4AD0BCF15A0F22D005800C80AA4AC9
:104490005068012843D02BE0A74B5D6004800C805E
:1044A0000520C8F800001480A6F800B0AAF8005053
:1044B00043E0DFF884C2CCF8043004800C8005208F
:1044C000C8F800001480A6F800B0AAF800500FE069
:1044D000DFF864C25A23CCF8043004800C80052035
:1044E000C8F800001480A6F800B00421AAF8001053
:1044F0009148406810F15A0F69D05A2868D02D2889
:104500007EF4ADAC8648016805296FD006296ED0CF
:1045100007296DD008296CD0A9E32D23C9E780486D
:104520000168052909D006291DD007292BD00829A3
:1045300038D0864609295DD084E0B7F9000010B173
:10454000012804D07EE0002002F08CFF7AE0B9F967
:10455000001069B3012975D1714A062111603C80B0
:10456000A9F800406EE06F49B1F9002012B1012AAC
:1045700003D067E004F022F964E0C0F800B00C80DA
:10458000092030802FE03188F9B9B7F9001011B156
:10459000012903D056E003F03DFE53E008210160FD
:1045A0003C804FE0B9F9002012B1012A04D049E063
:1045B0005A2004F067FA45E05A4BB3F9002012B1D3
:1045C000012A06D03EE004F001F83BE018E19CE04F
:1045D000BFE1092202603C80A9F800401C803580C0
:1045E0002220AAF80000504805802BE0C8E2E0E253
:1045F000F1E21CE3308828BB4C484D4905800B880C
:10460000012B1FD14B4BB3F90080B8F1010F32D011
:1046100010DC6FF0590CE04534D06FF02C0CE04505
:104620000ED1C2F808C004800C800A20CEF8000029
:104630001C8007E0B8F12D0F22D0B8F15A0F1CD022
:1046400005800C803C48806810F15A0F28D05A2809
:104650004FD02D287EF403AC314801680A293EF47E
:10466000FFAD0B295BD00C293EF407AE0D29F1D12B
:104670002D23012224E29560D5E74FF05A0C01E08A
:104680004FF02D0CC2F808C004800C800A20CEF830
:1046900000001C80A6F800B0AAF80050D2E7EFE3B3
:1046A0001F4801680A2970D00B296FD00C290FD040
:1046B0000D29CFD16FF059000346012236E20129BE
:1046C000C8D1B9F90020002A7EF4B9ADFEF722B9AD
:1046D00031880029BED1B7F9001000297ED0012908
:1046E000B8D1B9F90020002A7FF406A9FEF734B842
:1046F000F6E30B4801680A2971D00B293EF475AD29
:104700000C29A7D15A230122F0E2054800680528A8
:1047100014D0034A062822D007284FD07BE0FAE3C2
:104720007C000020600000206E0000206800002057
:104730006A00002064000020A8000020FE48B0F9B4
:10474000001011B1012903D065E003F0C5FC62E05F
:10475000FA4A062111600480092030802BE030885D
:1047600058BBB7F9000010B1012803D053E003F0A3
:1047700051FD50E0B9F9001011B1012907D04AE00C
:104780006FF0B30004F07EF945E0F3E3F3E3EA49A8
:10479000B1F9003013B1012B03D03CE003F016FF58
:1047A00039E0C2F800B03C80A9F800400C803580A8
:1047B0002220AAF80000E24805802CE0308850BB97
:1047C000E048E14905800B88012B24D1DF4BB3F988
:1047D00000C0BCF1010F35D015DC02E0DBE0FBE3EB
:1047E000C2E06FF05908C44503D06FF02C08C445EF
:1047F0000FD1D74DC5F8088004800C8008201060C8
:104800001C80BDE8FC9FBCF12D0F38D0BCF15A0FC5
:1048100026D005800C80CE488068012849D05A28CF
:1048200068D02D28EDD1C5480168082936D009295E
:104830006DD00A293EF4D4A80B29E2D12D236FF0C4
:1048400059023DE1DFF808C3CCF8085004800C8021
:10485000082010601C80A6F800B0AAF8005038E0CC
:10486000DFF8ECC25A27CCF8087004800C800820CE
:1048700010601C80A6F800B0AAF8005048E0DFF8ED
:10488000D0824FF02D0CC8F808C004800C8008209E
:1048900010601C80A6F800B0AAF80050B7F900001C
:1048A000A0B30128ADD1B9F9001000297FF4F9AA0D
:1048B0001CE7A248016808290BD0092944D00A291D
:1048C0003EF4C5AD0B299CD101236FF0590220E2C3
:1048D0008FE2B7F90000C8B1012892D1B9F90010F0
:1048E0000029E3D1FDF72ABF012A8AD10A220260FA
:1048F000FFF71FB891480168082909D0092912D08B
:104900000A298FD15A235A42F0E15DE23BE21BE0D3
:104910008948B0F9001039B301298ED1874A09219D
:1049200011600480F2E33188002986D1B7F90010C4
:1049300089B30129B6D1B9F90020002A3DF4C7AEE8
:10494000012AAFD10A2254E27B49B1F90020EAB32F
:10495000CAE77A480068052820D1B7F9000020B1DD
:10496000012806D069E0E3E054E2002002F07AFD7D
:1049700014E0B9F9001011B1012905D05DE06FF024
:10498000B30004F07FF809E06B49B1F900201AB1D7
:10499000012A0AD051E0DDE003F018FE674A1068F2
:1049A00006280FD0072827D047E0644B062264482A
:1049B0001A603C80A9F800400C803580AAF80050AD
:1049C00004210180308878BB5B4800E0C3E0B0F987
:1049D000001011B1012903D02FE003F07DFB2CE082
:1049E000564AC2F800B00480042030805448058044
:1049F0003320AAF8000020E03088A8B95148524975
:104A000005800B88012B18D1504BB3F90080B8F109
:104A1000010F17D009DC6FF0590CE04521D06FF081
:104A20002C0CE04507D12DE007E0B8F12D0F4AD05E
:104A3000B8F15A0F24D005800C80454880680128C1
:104A400044D028E0DFF808C1CCF8085004800C807E
:104A5000082010601C80A6F800B00420AAF800000E
:104A600042E0DFF8EC80C8F808C004800C80082021
:104A700010601C80A6F800B00420AAF800000AE02C
:104A80004FF05A0CDFF8C880C8F808C004800C80CA
:104A9000082010601C802E48806810F15A0F35D015
:104AA0002D287FF4AEAE2548016808295DD009297C
:104AB00055D00A293DF494AF0B29F2D12D235A2267
:104AC0006FF02C0126E44FF02D0CCAE71B4801685B
:104AD000082909D009290BD00A293EF4B8AC0B29C2
:104AE000DFD101235A2214E1B7F9000090B3F3E6B5
:104AF000114AB2F9001071B30129D2D10A21016023
:104B00001480092030800420FEF79EBC0B48016809
:104B100008293DF4F5AE092921D00A293DF408AF52
:104B20000B29BED16FF0590003465A226FF02C01B9
:104B300002B0BDE8F05F10E0600000207C000020C3
:104B40006E000020680000206A0000206400002041
:104B5000A800002038E036E034E101F069B9FE49F0
:104B6000B1F900207AB3FDF7DCBEB7F9001059B3F4
:104B7000012996D1B9F90020002A7DF4CEAEB5E521
:104B8000B7F9000010B1012804D070E0002002F055
:104B900069FC6CE0B9F9001011B1012902D066E09E
:104BA00087202AE0ED4A062111603C80A9F80040E8
:104BB0005DE0E94AB2F9001011B1012905D056E0D3
:104BC00003F0FCFD53E0EEE0EEE0C0F800B014802E
:104BD0000920308028E0318841BBB7F9001011B1BD
:104BE000012903D043E003F015FB40E0B9F90020B0
:104BF00012B1012A04D03AE02D2003F043FF36E041
:104C0000D54AB2F9003013B1012B03D02FE003F0E5
:104C1000DDFC2CE0082303603C80A9F800401480F0
:104C200035802220AAF80000CD4805801FE0318899
:104C3000E9B9CC49CC4A0D801388012B17D1CB4B55
:104C4000B3F90080B8F1010F16D008DC6FF0590CF1
:104C5000E0451FD06FF02C0CE04506D12BE0B8F1F9
:104C60002D0F47D0B8F15A0F22D00D801480C048C4
:104C70008068012841D027E0DFF8F4C2CCF8085062
:104C80000C801480092101601C80A6F800B0AAF8ED
:104C9000005042E0DFF8D882C8F808C00C801480C9
:104CA000092101601C80A6F800B0AAF800500BE0B2
:104CB0004FF05A0CEEE7DFF8B882C8F808C00C8055
:104CC0001480092101601C80A948806810F15A0FE6
:104CD00049D05A287FF495ADA048016809296AD0C7
:104CE0000A2976D00B29F5D15A232D226FF02C01F9
:104CF000FDF785BF4FF02D0CDDE7984801680929C5
:104D00000BD00A2918D00B291ED00C29E2D101237F
:104D10002D226FF02C01FEF7C7BCB7F9000090B34D
:104D20000128D7D1B9F9001000293FF4DBAD0129E2
:104D3000D0D10A21FFF7B8B8874AB2F9001091B371
:104D40000129C7D10B213DE031880029C2D1B7F933
:104D5000001049B30129BDD1B9F90020002A7EF421
:104D6000DEADFEF782BB7D48016809290CD00A2917
:104D70001BD00B293EF497AF0C29ABD16FF0590033
:104D800003462D22D2E637E0B7F90010A1B301297E
:104D9000A0D1B9F90020002A3FF498AC012A99D19A
:104DA0000A22FEF7C0BD34E049E06B49B1F90020AA
:104DB0007AB3FFF7DBBA684AB2F9001051B30129A0
:104DC00088D10A210160148009203080FEF748B89C
:104DD000FFE73188002986D1B7F9001079B301299E
:104DE00094D1B9F90020002A3DF471AC012A8DD18B
:104DF0000B220260FDF756BFFDE313B1012B04D077
:104E000077E0002002F02EFB10E022B1012A06D04C
:104E10006FE007E2D8E12D2003F034FE06E04E49B2
:104E200010B101280CD064E003F0C8FCDFF82C813D
:104E3000D8F8000003280ED004283AD059E0D6E173
:104E4000464A032010603C80A9F800400C800920ED
:104E5000308043480580308850BBB7F9000010B15E
:104E6000012803D045E003F0D5F942E0B9F900107C
:104E700011B1012905D03CE02D2003F003FE38E0FC
:104E8000DEE33549B1F9002012B1012A03D030E048
:104E900003F09CFB2DE0314B042222201A603C8061
:104EA000A9F800400C803580AAF800002C48058045
:104EB0001FE03088E8B92B482B4905800A88012A71
:104EC00017D12A4AB2F900C0BCF1010F16D008DC94
:104ED0006FF059039C451FD05B109C4507D12CE017
:104EE000DDE2BCF12D0F47D0BCF15A0F24D0058074
:104EF0000C801F4A5068012860D048E01C4B5D6060
:104F000004800C800520C8F800001480A6F800B0CA
:104F1000AAF8005061E09CE1DFF854C0CCF80430FE
:104F200004800C800520C8F800001480A6F800B0AA
:104F30000420AAF800002AE05A23DFF834C0CCF895
:104F4000043004800C800520C8F800001480A6F806
:104F500000B0AAF800501AE0600000207C00002099
:104F60006E000020680000206A000020640000201D
:104F7000A80000206CE113E1DFF8E8C32D23CCF892
:104F8000043004800C800520C8F800001480F54827
:104F9000406810F15A0F77D05A2876D02D307FF420
:104FA00030ACF1480168052970D006296FD0072977
:104FB0006ED008296DD009296CD091E3EA480168C8
:104FC00005290AD006291ED007292CD0082939D056
:104FD000864609295FD07EE0C1E0B7F9000010B134
:104FE000012804D077E0002002F03CFA73E0B9F920
:104FF000001069B301296ED1DB4A062111603C80A3
:10500000A9F8004067E0D94AB2F9001011B10129AE
:1050100003D060E003F0D2FB5DE0C0F800B0148084
:10502000092030802DE0318801BBB7F9001011B1A3
:10503000012903D04FE003F0EDF84CE008210160B6
:105040003C8048E0B9F9002012B1012A05D042E0C5
:105050006FF0590003F016FD3DE0C44AB2F900308C
:1050600013B1012B03D036E003F0B0FA33E009238B
:1050700003603C80A9F80040148035802220AAF803
:105080000000BB48058026E090E00BE223E33CE310
:105090004CE35AE38CE33088E8B9B648B64905805A
:1050A0000B88012B17D1B54BB3F90080B8F1010F74
:1050B0002DD008DC6FF0590CE0452CD06FF02C0C93
:1050C000E04506D127E0B8F12D0F31D0B8F15A0FE5
:1050D0001FD005800C80A348806810F15A0F32D091
:1050E0005A2841D02D307FF48CAB9F4801680A29A3
:1050F0003EF4F7AD0B2953D00C293EF4A4A80D299A
:10510000F1D16FF02C0213462D2104E6BFE2956029
:1051100012E04FF05A0CC2F808C004800C800A203C
:10512000CEF800001C80A6F800B0AAF80050D2E724
:105130004FF02D0CC2F808C004800C800A20CEF875
:1051400000001C80C7E7884801680A2907D00B299E
:105150003EF4A9AD0C29C6D16FF05902D3E78349BB
:10516000B1F9002082B324E67F4801680A296FD094
:105170000B296ED00C2904D00D29B4D15A231A461C
:10518000C2E731880029AED1B7F9001079B30129FF
:10519000A9D1B9F90020002A7EF4AEABFDF797BA89
:1051A0007249B1F90020EAB3FEF7BFBB6E48006850
:1051B00005281FD1B7F9000010B1012805D06AE019
:1051C000002002F04FF915E065E2B9F9001011B1C5
:1051D000012905D05FE06FF0B30003F053FC09E054
:1051E0006249B1F900201AB1012A0AD053E07DE1E9
:1051F00003F0ECF95C4A106806280FD0072829D084
:1052000049E0594B06225A481A603C80A9F80040F0
:105210000C803580AAF8005004210180308888BBBA
:10522000524800E0C3E3B0F9001011B1012903D0E6
:1052300031E002F051FF2EE04B4AC2F800B004808A
:10524000042030804A4805803320AAF8000022E07C
:105250009DE3A6E33088A8B94648474905800B88F6
:10526000012B18D1454BB3F90080B8F1010F17D0CD
:1052700009DC6FF0590CE04528D06FF02C0CE045AC
:1052800007D123E007E0B8F12D0F29D0B8F15A0F6C
:1052900010D005800C8033488068012823D08EE030
:1052A000DFF8C0C0CCF8085004800C8008201060E3
:1052B0001C8023E0DFF8AC804FF05A0CC8F808C01F
:1052C00004800C80082010601C8087E0DFF8948048
:1052D000C8F808C004800C80082010601C80BAE068
:1052E0004FF02D0CF2E720480168082906D0092963
:1052F0001CD00A292DD00B295AD0ACE0B7F90000F8
:1053000078B3012811D1B9F9001031B90421A6F8F8
:1053100000B0AAF800105A2039E0012905D1124A3C
:10532000092111603C80A9F8004094E00F49B1F9CF
:10533000002012B1012A03D08DE003F03FFA3EE0D5
:105340000A2202600C80092009493080042008806C
:1053500081E0318859BBB7F9001011B1012912D091
:1053600079E00DE0A80000207C0000206000002013
:105370006E000020680000206A0000206400002009
:1053800002F048FF1BE0B9F900201AB9872003F0AA
:1053900079FB14E0012A5ED10B220260FC48056013
:1053A0003C80A9F80040A6F800B0AAF8005052E0EE
:1053B00001231A462D216FF0590000F039FDF54800
:1053C00080685A2847D1F4480168082906D009297D
:1053D00015D00A2926D00B2937D03CE0B7F90000B8
:1053E00040B3012837D1B9F90010002995D1A6F8AA
:1053F00000B00421AAF800106FF0B30022E0E749E2
:10540000B1F9002012B1012A03D024E003F0D6F94B
:1054100021E00A2202600C8009203080E04804214B
:10542000018018E03188B1B9B7F9001011B1012934
:1054300003D010E002F0EEFE0DE0B9F90020002AE2
:10544000A8D12D2003F01EFB05E05A231A462D217A
:10545000584200F0EDFCCF4880682D307FF4D1A990
:10546000CD48016808290DD009293FF478AB0A29F5
:105470003DF49DAA0B29F1D16FF02C0213462D218A
:10548000FEF734BDB7F9001081B30129E6D1B9F9AF
:105490000020002A7DF441AAA6F800B00420AAF852
:1054A00000007BE6DFF8F082D8F80000052804D081
:1054B000062813D007283FD05DE0B848B0F90010A7
:1054C00011B1012903D056E002F006FE53E0062197
:1054D000C8F800100480092030802AE0308850BBD2
:1054E000B7F9000018B1012804D044E0E6E002F06A
:1054F00091FE40E0B9F9001011B1012905D03AE060
:105500006FF0B30003F0BEFA35E0A449B1F9002012
:1055100012B1012A03D02EE003F058F82BE0C8F8AE
:1055200000B03C80A9F800400C8035802220AAF809
:1055300000009B4805801EE03088E0B999489A49F0
:1055400005800A88012A16D1984AB2F900C0BCF138
:10555000010F15D007DC6FF059039C451DD05B107F
:105560009C4506D129E0BCF12D0F4BD0BCF15A0F60
:1055700022D005800C8087488068012844D026E02E
:10558000844B9D6004800C800820C8F800001480C3
:10559000A6F800B0AAF8005043E0DFF8F8C1CCF854
:1055A000083004800C800820C8F800001480A6F899
:1055B00000B0AAF800500AE05A23DFF8D8C1CCF8AE
:1055C000083004800C800820C8F80000148071485E
:1055D000806810F15A0F45D02D307FF412A9D8F809
:1055E000001008296CD009293DF4B9A80A292AD04D
:1055F0000B29F2D100E04DE06FF02C0213462D2173
:10560000FDF7FDBA2D23C8E7D8F80010082908D007
:105610000929E9D00A2916D00B29DED101231A461F
:10562000EDE7B7F90000A8B30128D6D1B9F9001009
:1056300000293DF4A8A80129CFD10921C8F80010FC
:105640003C80FDF720BC31880029C6D1B7F9001095
:10565000A1B30129C1D1B9F90020002A3DF405AF59
:10566000FDF7E7BAD8F80010082906D0092916D0A6
:105670000A29B2D16FF05902C0E7484AB2F90010C6
:1056800049B10129A9D10921C8F80010148031803D
:10569000FDF7E6BB49E0BDE8FC5F02F01DBD3188C7
:1056A00000299AD1B7F9001041B1012995D1B9F972
:1056B0000020002A3DF450A8FDF70BB87BE1FFE77E
:1056C000B7F9001089B3012987D1B9F90020002A60
:1056D0007DF41FA862E5B7F9000010B1012804D0DD
:1056E00086E0002001F0BEFE82E0B9F9001011B1A1
:1056F000012903D07CE06FF086002EE0264A0621C7
:1057000011603C80A9F8004072E02449B1F9002002
:1057100012B1012A03D06BE003F050F868E0C0F842
:1057200000B00C80092030802EE035E1318801BBCB
:10573000B7F9001011B1012903D059E002F06AFD58
:1057400056E0082101603C8052E0B9F9002012B116
:10575000012A05D04CE06FF02C0003F093F947E0EC
:105760000E4AB2F9003013B1012B03D040E002F031
:105770002DFF3DE0092303603C80A9F80040148020
:1057800035802220AAF800000548058030E000009E
:1057900080000020A80000207C0000206000002085
:1057A0006E000020680000206A00002064000020D5
:1057B0003188E9B98249834A0D801388012B17D1BA
:1057C000814BB3F90080B8F1010F16D008DC6FF0FF
:1057D000590CE0451FD06FF02C0CE04506D12BE0B2
:1057E000B8F12D0F32D0B8F15A0F22D00D801480AD
:1057F0007648806801282CD081E0DFF8D0C1CCF851
:1058000008500C8014800A2101601C80A6F800B0AA
:10581000AAF8005028E0DFF8B481C8F808C00C806E
:1058200014800A2101601C80A6F800B0AAF800507C
:1058300065E04FF05A0CEEE7DFF89081C8F808C039
:105840000C8014800A2101601C8058E04FF02D0C60
:10585000F2E75F4801680A2906D00B291AD00C2903
:105860002AD00D2945D04AE0B7F9000010B101282F
:1058700004D044E0002001F0F5FD40E0B9F900104B
:1058800011B1012902D03AE05A2027E0504A0B21F9
:1058900011602AE04F49B1F9002012B1012A03D06A
:1058A0002DE002F08BFF2AE00C2202600C80092020
:1058B00030804948058022E0318801BBB7F90010EB
:1058C00011B1012903D01AE002F0A4FC17E0B9F9E4
:1058D000002012B1012A04D011E0872003F0D2F891
:1058E0000DE00D2202603D4805603C80A9F80040B3
:1058F00005E001232D211A46484200F099FADFF80D
:10590000CC80D8F808005A300FD1314801680A29F4
:105910001FD00B2926D00C297EF473AF6FF05902EB
:1059200013462D21501000F083FAD8F808005A28A9
:10593000F2D1274801680A2929D00B2931D00C2936
:105940003FF41FAC0D29E7D15A231A462D21FEF74B
:1059500015BC2049B1F90020002A7FF404AC02F004
:10596000BBFBE2E731880029D6D1B7F9001059B165
:105970000129D1D1B9F90020002A7DF4D0AF6FF010
:105980002C0003F07FF8D0E702F044FCCDE7B7F934
:10599000001000297EF493AEBDE8FC5F002001F00A
:1059A00061BD0C4AB2F9001000297EF4E3ACBDE8F9
:1059B000FC5F02F003BFBDE8FC5F02F02BBC0000FF
:1059C000680000206A00002064000020A800002079
:1059D0007C000020600000206E000020800000207D
:1059E0002DE9F84FB14D0024DFF8BCA2B5F90080D5
:1059F000AF4D4FF001094FF0030E2E68AD4D6FF023
:105A00002C0B012BB5F90070AB4DB5F900C021D0BE
:105A10005A2B1FD02D2B1DD013F12D0F02D013F1B7
:105A20005A0F5FD1A24D012E6FD0022E6ED0032EE1
:105A30006DD0042E6CD0052E70D0062E6AD0072EA5
:105A400069D0082E68D0092E67D00A2E74D00B2E8C
:105A500073D016E0964D012E1ED0022E26D0032EB6
:105A600034D0042E40D0052E58D0062E66D0072EF6
:105A700077D0082E7ED0092E70D00A2E5CD00B2E47
:105A80006DD00C2E2ED18C48BCF1000F68D0BCF12B
:105A9000010F27D10D2194E000936FF0590395E099
:105AA000BAF8001000291DD1022118E07F48B8F192
:105AB000000F6ED0B8F1010F14D17E490FB92D201F
:105AC000E9E0012F0ED1C5F800E01BE000935B4632
:105AD00093E000BFBAF80010002903D10421296027
